{
  "contractName": "Escrow",
  "abi": [
    {
      "inputs": [
        {
          "internalType": "address",
          "name": "_freelancer",
          "type": "address"
        },
        {
          "internalType": "address",
          "name": "_arbitrator",
          "type": "address"
        },
        {
          "internalType": "string",
          "name": "_jobDescription",
          "type": "string"
        }
      ],
      "stateMutability": "nonpayable",
      "type": "constructor"
    },
    {
      "anonymous": false,
      "inputs": [
        {
          "indexed": true,
          "internalType": "address",
          "name": "raisedBy",
          "type": "address"
        }
      ],
      "name": "DisputeRaised",
      "type": "event"
    },
    {
      "anonymous": false,
      "inputs": [
        {
          "indexed": true,
          "internalType": "address",
          "name": "winner",
          "type": "address"
        },
        {
          "indexed": false,
          "internalType": "uint256",
          "name": "amount",
          "type": "uint256"
        }
      ],
      "name": "DisputeResolved",
      "type": "event"
    },
    {
      "anonymous": false,
      "inputs": [
        {
          "indexed": true,
          "internalType": "address",
          "name": "client",
          "type": "address"
        },
        {
          "indexed": false,
          "internalType": "uint256",
          "name": "amount",
          "type": "uint256"
        }
      ],
      "name": "FundsDeposited",
      "type": "event"
    },
    {
      "anonymous": false,
      "inputs": [
        {
          "indexed": true,
          "internalType": "address",
          "name": "freelancer",
          "type": "address"
        },
        {
          "indexed": false,
          "internalType": "uint256",
          "name": "amount",
          "type": "uint256"
        }
      ],
      "name": "FundsReleased",
      "type": "event"
    },
    {
      "anonymous": false,
      "inputs": [
        {
          "indexed": true,
          "internalType": "address",
          "name": "client",
          "type": "address"
        },
        {
          "indexed": false,
          "internalType": "uint256",
          "name": "amount",
          "type": "uint256"
        }
      ],
      "name": "RefundIssued",
      "type": "event"
    },
    {
      "anonymous": false,
      "inputs": [
        {
          "indexed": true,
          "internalType": "address",
          "name": "freelancer",
          "type": "address"
        }
      ],
      "name": "WorkSubmitted",
      "type": "event"
    },
    {
      "inputs": [],
      "name": "amount",
      "outputs": [
        {
          "internalType": "uint256",
          "name": "",
          "type": "uint256"
        }
      ],
      "stateMutability": "view",
      "type": "function"
    },
    {
      "inputs": [],
      "name": "arbitrator",
      "outputs": [
        {
          "internalType": "address",
          "name": "",
          "type": "address"
        }
      ],
      "stateMutability": "view",
      "type": "function"
    },
    {
      "inputs": [],
      "name": "client",
      "outputs": [
        {
          "internalType": "address",
          "name": "",
          "type": "address"
        }
      ],
      "stateMutability": "view",
      "type": "function"
    },
    {
      "inputs": [],
      "name": "currentState",
      "outputs": [
        {
          "internalType": "enum Escrow.State",
          "name": "",
          "type": "uint8"
        }
      ],
      "stateMutability": "view",
      "type": "function"
    },
    {
      "inputs": [],
      "name": "freelancer",
      "outputs": [
        {
          "internalType": "address",
          "name": "",
          "type": "address"
        }
      ],
      "stateMutability": "view",
      "type": "function"
    },
    {
      "inputs": [],
      "name": "jobDescription",
      "outputs": [
        {
          "internalType": "string",
          "name": "",
          "type": "string"
        }
      ],
      "stateMutability": "view",
      "type": "function"
    },
    {
      "inputs": [],
      "name": "deposit",
      "outputs": [],
      "stateMutability": "payable",
      "type": "function"
    },
    {
      "inputs": [],
      "name": "submitWork",
      "outputs": [],
      "stateMutability": "nonpayable",
      "type": "function"
    },
    {
      "inputs": [],
      "name": "releaseFunds",
      "outputs": [],
      "stateMutability": "nonpayable",
      "type": "function"
    },
    {
      "inputs": [],
      "name": "raiseDispute",
      "outputs": [],
      "stateMutability": "nonpayable",
      "type": "function"
    },
    {
      "inputs": [
        {
          "internalType": "bool",
          "name": "_releaseToFreelancer",
          "type": "bool"
        }
      ],
      "name": "resolveDispute",
      "outputs": [],
      "stateMutability": "nonpayable",
      "type": "function"
    },
    {
      "inputs": [],
      "name": "getBalance",
      "outputs": [
        {
          "internalType": "uint256",
          "name": "",
          "type": "uint256"
        }
      ],
      "stateMutability": "view",
      "type": "function"
    }
  ],
  "bytecode": "0x60806040523480156200001157600080fd5b5060405162000f3a38038062000f3a8339810160408190526200003491620001e1565b6001600160a01b038316620000905760405162461bcd60e51b815260206004820152601a60248201527f496e76616c696420667265656c616e636572206164647265737300000000000060448201526064015b60405180910390fd5b6001600160a01b038216620000e85760405162461bcd60e51b815260206004820152601a60248201527f496e76616c69642061726269747261746f722061646472657373000000000000604482015260640162000087565b336001600160a01b03841603620001425760405162461bcd60e51b815260206004820152601b60248201527f436c69656e742063616e6e6f7420626520667265656c616e6365720000000000604482015260640162000087565b600080546101003302610100600160a81b0319909116179055600180546001600160a01b038581166001600160a01b031992831617909255600280549285169290911691909117905560046200019982826200036a565b50506005805460ff1916905550620004369050565b80516001600160a01b0381168114620001c657600080fd5b919050565b634e487b7160e01b600052604160045260246000fd5b600080600060608486031215620001f757600080fd5b6200020284620001ae565b9250602062000213818601620001ae565b60408601519093506001600160401b03808211156200023157600080fd5b818701915087601f8301126200024657600080fd5b8151818111156200025b576200025b620001cb565b604051601f8201601f19908116603f01168101908382118183101715620002865762000286620001cb565b816040528281528a868487010111156200029f57600080fd5b600093505b82841015620002c35784840186015181850187015292850192620002a4565b60008684830101528096505050505050509250925092565b600181811c90821680620002f057607f821691505b6020821081036200031157634e487b7160e01b600052602260045260246000fd5b50919050565b601f8211156200036557600081815260208120601f850160051c81016020861015620003405750805b601f850160051c820191505b8181101562000361578281556001016200034c565b5050505b505050565b81516001600160401b03811115620003865762000386620001cb565b6200039e81620003978454620002db565b8462000317565b602080601f831160018114620003d65760008415620003bd5750858301515b600019600386901b1c1916600185901b17855562000361565b600085815260208120601f198616915b828110156200040757888601518255948401946001909101908401620003e6565b5085821015620004265787850151600019600388901b60f8161c191681555b5050505050600190811b01905550565b610af480620004466000396000f3fe6080604052600436106100a75760003560e01c806389e1e82a1161006457806389e1e82a14610182578063a37dda2c146101a2578063aa8c217c146101c2578063c7a25777146101d8578063d0e30db0146101ed578063d1ecc66b146101f557600080fd5b80630c3f6acf146100ac578063109e94cf146100dc57806312065fe01461011957806369d89575146101365780636cc6cde11461014d5780636daa2d441461016d575b600080fd5b3480156100b857600080fd5b506005546100c69060ff1681565b6040516100d3919061094e565b60405180910390f35b3480156100e857600080fd5b506000546101019061010090046001600160a01b031681565b6040516001600160a01b0390911681526020016100d3565b34801561012557600080fd5b50475b6040519081526020016100d3565b34801561014257600080fd5b5061014b610217565b005b34801561015957600080fd5b50600254610101906001600160a01b031681565b34801561017957600080fd5b5061014b6103b5565b34801561018e57600080fd5b5061014b61019d366004610976565b610456565b3480156101ae57600080fd5b50600154610101906001600160a01b031681565b3480156101ce57600080fd5b5061012860035481565b3480156101e457600080fd5b5061014b6106ea565b61014b6107a9565b34801561020157600080fd5b5061020a6108aa565b6040516100d3919061099f565b60005461010090046001600160a01b0316331461024f5760405162461bcd60e51b8152600401610246906109ed565b60405180910390fd5b60018060055460ff16600481111561026957610269610938565b146102865760405162461bcd60e51b815260040161024690610a24565b60005460ff16156102ca5760405162461bcd60e51b815260206004820152600e60248201526d1499595b9d1c985b9d0818d85b1b60921b6044820152606401610246565b6000805460ff199081166001908117835560058054909216600217909155600380549083905590546040519192916001600160a01b039091169083908381818185875af1925050503d806000811461033e576040519150601f19603f3d011682016040523d82523d6000602084013e610343565b606091505b50509050806103645760405162461bcd60e51b815260040161024690610a5b565b6001546040518381526001600160a01b03909116907f221c08a06b07a64803b3787861a3f276212fcccb51c2e6234077a9b8cb13047a9060200160405180910390a250506000805460ff1916905550565b60005461010090046001600160a01b031633146103e45760405162461bcd60e51b8152600401610246906109ed565b60018060055460ff1660048111156103fe576103fe610938565b1461041b5760405162461bcd60e51b815260040161024690610a24565b6005805460ff1916600317905560405133907f0b3cd97b16a08a5c77357c276d248827ad32dfd56060f7c55d6255537ba3d96290600090a250565b6002546001600160a01b031633146104b05760405162461bcd60e51b815260206004820152601d60248201527f4f6e6c792061726269747261746f722063616e2063616c6c20746869730000006044820152606401610246565b60038060055460ff1660048111156104ca576104ca610938565b146104e75760405162461bcd60e51b815260040161024690610a24565b60005460ff161561052b5760405162461bcd60e51b815260206004820152600e60248201526d1499595b9d1c985b9d0818d85b1b60921b6044820152606401610246565b6000805460ff1916600117815560038054919055821561060d576005805460ff191660021790556001546040516000916001600160a01b03169083908381818185875af1925050503d806000811461059f576040519150601f19603f3d011682016040523d82523d6000602084013e6105a4565b606091505b50509050806105c55760405162461bcd60e51b815260040161024690610a5b565b6001546040518381526001600160a01b03909116907ff396531fad1d4dc2cd92386cdea800c92a507f8fe1bdb80313eb32a57481b1dc9060200160405180910390a2506106db565b60058054600460ff19909116179055600080546040516101009091046001600160a01b03169083908381818185875af1925050503d806000811461066d576040519150601f19603f3d011682016040523d82523d6000602084013e610672565b606091505b50509050806106935760405162461bcd60e51b815260040161024690610a5b565b6000546040518381526101009091046001600160a01b0316907ff396531fad1d4dc2cd92386cdea800c92a507f8fe1bdb80313eb32a57481b1dc9060200160405180910390a2505b50506000805460ff1916905550565b6001546001600160a01b031633146107445760405162461bcd60e51b815260206004820152601d60248201527f4f6e6c7920667265656c616e6365722063616e2063616c6c20746869730000006044820152606401610246565b60018060055460ff16600481111561075e5761075e610938565b1461077b5760405162461bcd60e51b815260040161024690610a24565b60405133907ff04a1f236f845c044c77f6e91793ed8787cafff53f0d8604a32abf85dece407390600090a250565b60005461010090046001600160a01b031633146107d85760405162461bcd60e51b8152600401610246906109ed565b60008060055460ff1660048111156107f2576107f2610938565b1461080f5760405162461bcd60e51b815260040161024690610a24565b6000341161085f5760405162461bcd60e51b815260206004820152601e60248201527f4465706f736974206d7573742062652067726561746572207468616e203000006044820152606401610246565b3460038190556005805460ff1916600117905560405190815233907f543ba50a5eec5e6178218e364b1d0f396157b3c8fa278522c2cb7fd99407d4749060200160405180910390a250565b600480546108b790610a84565b80601f01602080910402602001604051908101604052809291908181526020018280546108e390610a84565b80156109305780601f1061090557610100808354040283529160200191610930565b820191906000526020600020905b81548152906001019060200180831161091357829003601f168201915b505050505081565b634e487b7160e01b600052602160045260246000fd5b602081016005831061097057634e487b7160e01b600052602160045260246000fd5b91905290565b60006020828403121561098857600080fd5b8135801515811461099857600080fd5b9392505050565b600060208083528351808285015260005b818110156109cc578581018301518582016040015282016109b0565b506000604082860101526040601f19601f8301168501019250505092915050565b60208082526019908201527f4f6e6c7920636c69656e742063616e2063616c6c207468697300000000000000604082015260600190565b6020808252601d908201527f496e76616c696420737461746520666f72207468697320616374696f6e000000604082015260600190565b6020808252600f908201526e151c985b9cd9995c8819985a5b1959608a1b604082015260600190565b600181811c90821680610a9857607f821691505b602082108103610ab857634e487b7160e01b600052602260045260246000fd5b5091905056fea264697066735822122026c2a576de699ca5d192fb54f285c55d09823e0ae74bc55d9686bb2f4f7506cf64736f6c63430008150033",
  "immutableReferences": {},
  "source": "// SPDX-License-Identifier: MIT\r\npragma solidity ^0.8.21;\r\n\r\n/// @title Freelance Escrow Contract\r\n/// @notice Holds funds between client and freelancer with dispute resolution\r\ncontract Escrow {\r\n\r\n    // ─── Reentrancy guard ────────────────────────────────────────\r\n    bool private locked;\r\n    modifier nonReentrant() {\r\n        require(!locked, \"Reentrant call\");\r\n        locked = true;\r\n        _;\r\n        locked = false;\r\n    }\r\n\r\n    // ─── State machine ───────────────────────────────────────────\r\n    enum State {\r\n        AWAITING_PAYMENT,\r\n        AWAITING_DELIVERY,\r\n        COMPLETE,\r\n        DISPUTED,\r\n        REFUNDED\r\n    }\r\n\r\n    // ─── State variables ─────────────────────────────────────────\r\n    address public client;\r\n    address public freelancer;\r\n    address public arbitrator;\r\n    uint256 public amount;\r\n    string  public jobDescription;\r\n    State   public currentState;\r\n\r\n    // ─── Events ──────────────────────────────────────────────────\r\n    event FundsDeposited(address indexed client, uint256 amount);\r\n    event WorkSubmitted(address indexed freelancer);\r\n    event FundsReleased(address indexed freelancer, uint256 amount);\r\n    event RefundIssued(address indexed client, uint256 amount);\r\n    event DisputeRaised(address indexed raisedBy);\r\n    event DisputeResolved(address indexed winner, uint256 amount);\r\n\r\n    // ─── Modifiers ───────────────────────────────────────────────\r\n    modifier onlyClient() {\r\n        require(msg.sender == client, \"Only client can call this\");\r\n        _;\r\n    }\r\n\r\n    modifier onlyFreelancer() {\r\n        require(msg.sender == freelancer, \"Only freelancer can call this\");\r\n        _;\r\n    }\r\n\r\n    modifier onlyArbitrator() {\r\n        require(msg.sender == arbitrator, \"Only arbitrator can call this\");\r\n        _;\r\n    }\r\n\r\n    modifier inState(State _state) {\r\n        require(currentState == _state, \"Invalid state for this action\");\r\n        _;\r\n    }\r\n\r\n    // ─── Constructor ─────────────────────────────────────────────\r\n    constructor(\r\n        address _freelancer,\r\n        address _arbitrator,\r\n        string memory _jobDescription\r\n    ) {\r\n        require(_freelancer != address(0), \"Invalid freelancer address\");\r\n        require(_arbitrator != address(0), \"Invalid arbitrator address\");\r\n        require(_freelancer != msg.sender, \"Client cannot be freelancer\");\r\n\r\n        client         = msg.sender;\r\n        freelancer     = _freelancer;\r\n        arbitrator     = _arbitrator;\r\n        jobDescription = _jobDescription;\r\n        currentState   = State.AWAITING_PAYMENT;\r\n    }\r\n\r\n    // ─── Functions ───────────────────────────────────────────────\r\n\r\n    /// @notice Client deposits ETH to fund the escrow\r\n    function deposit()\r\n        external\r\n        payable\r\n        onlyClient\r\n        inState(State.AWAITING_PAYMENT)\r\n    {\r\n        require(msg.value > 0, \"Deposit must be greater than 0\");\r\n        amount = msg.value;\r\n        currentState = State.AWAITING_DELIVERY;\r\n        emit FundsDeposited(msg.sender, msg.value);\r\n    }\r\n\r\n    /// @notice Freelancer marks work as submitted\r\n    function submitWork()\r\n        external\r\n        onlyFreelancer\r\n        inState(State.AWAITING_DELIVERY)\r\n    {\r\n        emit WorkSubmitted(msg.sender);\r\n    }\r\n\r\n    /// @notice Client approves work and releases funds to freelancer\r\n    function releaseFunds()\r\n        external\r\n        onlyClient\r\n        inState(State.AWAITING_DELIVERY)\r\n        nonReentrant\r\n    {\r\n        currentState = State.COMPLETE;\r\n        uint256 payout = amount;\r\n        amount = 0;\r\n        (bool success, ) = freelancer.call{value: payout}(\"\");\r\n        require(success, \"Transfer failed\");\r\n        emit FundsReleased(freelancer, payout);\r\n    }\r\n\r\n    /// @notice Client raises a dispute\r\n    function raiseDispute()\r\n        external\r\n        onlyClient\r\n        inState(State.AWAITING_DELIVERY)\r\n    {\r\n        currentState = State.DISPUTED;\r\n        emit DisputeRaised(msg.sender);\r\n    }\r\n\r\n    /// @notice Arbitrator resolves dispute — true = pay freelancer, false = refund client\r\n    function resolveDispute(bool _releaseToFreelancer)\r\n        external\r\n        onlyArbitrator\r\n        inState(State.DISPUTED)\r\n        nonReentrant\r\n    {\r\n        uint256 payout = amount;\r\n        amount = 0;\r\n\r\n        if (_releaseToFreelancer) {\r\n            currentState = State.COMPLETE;\r\n            (bool success, ) = freelancer.call{value: payout}(\"\");\r\n            require(success, \"Transfer failed\");\r\n            emit DisputeResolved(freelancer, payout);\r\n        } else {\r\n            currentState = State.REFUNDED;\r\n            (bool success, ) = client.call{value: payout}(\"\");\r\n            require(success, \"Transfer failed\");\r\n            emit DisputeResolved(client, payout);\r\n        }\r\n    }\r\n\r\n    /// @notice Returns the contract ETH balance\r\n    function getBalance() external view returns (uint256) {\r\n        return address(this).balance;\r\n    }\r\n}",
  "sourcePath": "C:\\Users\\Dell\\Documents\\freelance-escrow-dapp\\contracts\\Escrow.sol",
  "compiler": {
    "name": "solc",
    "version": "0.8.21+commit.d9974bed.Emscripten.clang"
  },
  "schemaVersion": "3.4.16",
  "updatedAt": "2026-03-16T11:07:14.947Z",
  "devdoc": {
    "kind": "dev",
    "methods": {},
    "title": "Freelance Escrow Contract",
    "version": 1
  },
  "userdoc": {
    "kind": "user",
    "methods": {
      "deposit()": {
        "notice": "Client deposits ETH to fund the escrow"
      },
      "getBalance()": {
        "notice": "Returns the contract ETH balance"
      },
      "raiseDispute()": {
        "notice": "Client raises a dispute"
      },
      "releaseFunds()": {
        "notice": "Client approves work and releases funds to freelancer"
      },
      "resolveDispute(bool)": {
        "notice": "Arbitrator resolves dispute — true = pay freelancer, false = refund client"
      },
      "submitWork()": {
        "notice": "Freelancer marks work as submitted"
      }
    },
    "notice": "Holds funds between client and freelancer with dispute resolution",
    "version": 1
  }
}