{
  "contractName": "EscrowFactory",
  "abi": [
    {
      "inputs": [
        {
          "internalType": "address",
          "name": "_arbitrator",
          "type": "address"
        }
      ],
      "stateMutability": "nonpayable",
      "type": "constructor"
    },
    {
      "anonymous": false,
      "inputs": [
        {
          "indexed": true,
          "internalType": "address",
          "name": "escrowAddress",
          "type": "address"
        },
        {
          "indexed": true,
          "internalType": "address",
          "name": "client",
          "type": "address"
        },
        {
          "indexed": true,
          "internalType": "address",
          "name": "freelancer",
          "type": "address"
        },
        {
          "indexed": false,
          "internalType": "string",
          "name": "jobDescription",
          "type": "string"
        }
      ],
      "name": "EscrowCreated",
      "type": "event"
    },
    {
      "inputs": [],
      "name": "arbitrator",
      "outputs": [
        {
          "internalType": "address",
          "name": "",
          "type": "address"
        }
      ],
      "stateMutability": "view",
      "type": "function",
      "constant": true
    },
    {
      "inputs": [
        {
          "internalType": "uint256",
          "name": "",
          "type": "uint256"
        }
      ],
      "name": "escrowContracts",
      "outputs": [
        {
          "internalType": "address",
          "name": "",
          "type": "address"
        }
      ],
      "stateMutability": "view",
      "type": "function",
      "constant": true
    },
    {
      "inputs": [
        {
          "internalType": "address",
          "name": "_freelancer",
          "type": "address"
        },
        {
          "internalType": "string",
          "name": "_jobDescription",
          "type": "string"
        }
      ],
      "name": "createEscrow",
      "outputs": [
        {
          "internalType": "address",
          "name": "",
          "type": "address"
        }
      ],
      "stateMutability": "nonpayable",
      "type": "function"
    },
    {
      "inputs": [],
      "name": "getAllEscrows",
      "outputs": [
        {
          "internalType": "address[]",
          "name": "",
          "type": "address[]"
        }
      ],
      "stateMutability": "view",
      "type": "function",
      "constant": true
    },
    {
      "inputs": [],
      "name": "getEscrowCount",
      "outputs": [
        {
          "internalType": "uint256",
          "name": "",
          "type": "uint256"
        }
      ],
      "stateMutability": "view",
      "type": "function",
      "constant": true
    }
  ],
  "bytecode": "0x608060405234801561001057600080fd5b5060405161151738038061151783398101604081905261002f916100ae565b6001600160a01b0381166100895760405162461bcd60e51b815260206004820152601a60248201527f496e76616c69642061726269747261746f722061646472657373000000000000604482015260640160405180910390fd5b600080546001600160a01b0319166001600160a01b03929092169190911790556100de565b6000602082840312156100c057600080fd5b81516001600160a01b03811681146100d757600080fd5b9392505050565b61142a806100ed6000396000f3fe608060405234801561001057600080fd5b50600436106100575760003560e01c806316b151351461005c5780633f407b4f146100725780636cc6cde11461009d5780639a6ac36f146100b0578063d0e2dfba146100c5575b600080fd5b6001546040519081526020015b60405180910390f35b61008561008036600461026b565b6100d8565b6040516001600160a01b039091168152602001610069565b600054610085906001600160a01b031681565b6100b86101bb565b604051610069919061033b565b6100856100d3366004610388565b61021d565b600080546040518291339186916001600160a01b03169086906100fa90610247565b61010794939291906103e7565b604051809103906000f080158015610123573d6000803e3d6000fd5b506001805480820182556000919091527fb10e2d527612073b26eecdfd717e6a320cf44b4afac2b0732d9fcbe2b7fa0cf60180546001600160a01b0319166001600160a01b03838116918217909255604051929350908616913391907fec6bc7b3ad653751544ce63b518a2726eb560f11c84dc10fba7ba7943183b22d906101ac908890610425565b60405180910390a49392505050565b6060600180548060200260200160405190810160405280929190818152602001828054801561021357602002820191906000526020600020905b81546001600160a01b031681526001909101906020018083116101f5575b5050505050905090565b6001818154811061022d57600080fd5b6000918252602090912001546001600160a01b0316905081565b610fb5806200044083390190565b634e487b7160e01b600052604160045260246000fd5b6000806040838503121561027e57600080fd5b82356001600160a01b038116811461029557600080fd5b9150602083013567ffffffffffffffff808211156102b257600080fd5b818501915085601f8301126102c657600080fd5b8135818111156102d8576102d8610255565b604051601f8201601f19908116603f0116810190838211818310171561030057610300610255565b8160405282815288602084870101111561031957600080fd5b8260208601602083013760006020848301015280955050505050509250929050565b6020808252825182820181905260009190848201906040850190845b8181101561037c5783516001600160a01b031683529284019291840191600101610357565b50909695505050505050565b60006020828403121561039a57600080fd5b5035919050565b6000815180845260005b818110156103c7576020818501810151868301820152016103ab565b506000602082860101526020601f19601f83011685010191505092915050565b6001600160a01b03858116825284811660208301528316604082015260806060820181905260009061041b908301846103a1565b9695505050505050565b60208152600061043860208301846103a1565b939250505056fe60806040523480156200001157600080fd5b5060405162000fb538038062000fb5833981016040819052620000349162000249565b6001600160a01b038416620000905760405162461bcd60e51b815260206004820152601660248201527f496e76616c696420636c69656e7420616464726573730000000000000000000060448201526064015b60405180910390fd5b6001600160a01b038316620000e85760405162461bcd60e51b815260206004820152601a60248201527f496e76616c696420667265656c616e6365722061646472657373000000000000604482015260640162000087565b6001600160a01b038216620001405760405162461bcd60e51b815260206004820152601a60248201527f496e76616c69642061726269747261746f722061646472657373000000000000604482015260640162000087565b836001600160a01b0316836001600160a01b031603620001a35760405162461bcd60e51b815260206004820152601b60248201527f436c69656e742063616e6e6f7420626520667265656c616e6365720000000000604482015260640162000087565b600080546001600160a01b0380871661010002610100600160a81b031990921691909117909155600180548583166001600160a01b03199182161790915560028054928516929091169190911790556004620002008282620003e5565b50506005805460ff1916905550620004b1915050565b80516001600160a01b03811681146200022e57600080fd5b919050565b634e487b7160e01b600052604160045260246000fd5b600080600080608085870312156200026057600080fd5b6200026b8562000216565b935060206200027c81870162000216565b93506200028c6040870162000216565b60608701519093506001600160401b0380821115620002aa57600080fd5b818801915088601f830112620002bf57600080fd5b815181811115620002d457620002d462000233565b604051601f8201601f19908116603f01168101908382118183101715620002ff57620002ff62000233565b816040528281528b868487010111156200031857600080fd5b600093505b828410156200033c57848401860151818501870152928501926200031d565b600086848301015280965050505050505092959194509250565b600181811c908216806200036b57607f821691505b6020821081036200038c57634e487b7160e01b600052602260045260246000fd5b50919050565b601f821115620003e057600081815260208120601f850160051c81016020861015620003bb5750805b601f850160051c820191505b81811015620003dc57828155600101620003c7565b5050505b505050565b81516001600160401b0381111562000401576200040162000233565b620004198162000412845462000356565b8462000392565b602080601f831160018114620004515760008415620004385750858301515b600019600386901b1c1916600185901b178555620003dc565b600085815260208120601f198616915b82811015620004825788860151825594840194600190910190840162000461565b5085821015620004a15787850151600019600388901b60f8161c191681555b5050505050600190811b01905550565b610af480620004c16000396000f3fe6080604052600436106100a75760003560e01c806389e1e82a1161006457806389e1e82a14610182578063a37dda2c146101a2578063aa8c217c146101c2578063c7a25777146101d8578063d0e30db0146101ed578063d1ecc66b146101f557600080fd5b80630c3f6acf146100ac578063109e94cf146100dc57806312065fe01461011957806369d89575146101365780636cc6cde11461014d5780636daa2d441461016d575b600080fd5b3480156100b857600080fd5b506005546100c69060ff1681565b6040516100d3919061094e565b60405180910390f35b3480156100e857600080fd5b506000546101019061010090046001600160a01b031681565b6040516001600160a01b0390911681526020016100d3565b34801561012557600080fd5b50475b6040519081526020016100d3565b34801561014257600080fd5b5061014b610217565b005b34801561015957600080fd5b50600254610101906001600160a01b031681565b34801561017957600080fd5b5061014b6103b5565b34801561018e57600080fd5b5061014b61019d366004610976565b610456565b3480156101ae57600080fd5b50600154610101906001600160a01b031681565b3480156101ce57600080fd5b5061012860035481565b3480156101e457600080fd5b5061014b6106ea565b61014b6107a9565b34801561020157600080fd5b5061020a6108aa565b6040516100d3919061099f565b60005461010090046001600160a01b0316331461024f5760405162461bcd60e51b8152600401610246906109ed565b60405180910390fd5b60018060055460ff16600481111561026957610269610938565b146102865760405162461bcd60e51b815260040161024690610a24565b60005460ff16156102ca5760405162461bcd60e51b815260206004820152600e60248201526d1499595b9d1c985b9d0818d85b1b60921b6044820152606401610246565b6000805460ff199081166001908117835560058054909216600217909155600380549083905590546040519192916001600160a01b039091169083908381818185875af1925050503d806000811461033e576040519150601f19603f3d011682016040523d82523d6000602084013e610343565b606091505b50509050806103645760405162461bcd60e51b815260040161024690610a5b565b6001546040518381526001600160a01b03909116907f221c08a06b07a64803b3787861a3f276212fcccb51c2e6234077a9b8cb13047a9060200160405180910390a250506000805460ff1916905550565b60005461010090046001600160a01b031633146103e45760405162461bcd60e51b8152600401610246906109ed565b60018060055460ff1660048111156103fe576103fe610938565b1461041b5760405162461bcd60e51b815260040161024690610a24565b6005805460ff1916600317905560405133907f0b3cd97b16a08a5c77357c276d248827ad32dfd56060f7c55d6255537ba3d96290600090a250565b6002546001600160a01b031633146104b05760405162461bcd60e51b815260206004820152601d60248201527f4f6e6c792061726269747261746f722063616e2063616c6c20746869730000006044820152606401610246565b60038060055460ff1660048111156104ca576104ca610938565b146104e75760405162461bcd60e51b815260040161024690610a24565b60005460ff161561052b5760405162461bcd60e51b815260206004820152600e60248201526d1499595b9d1c985b9d0818d85b1b60921b6044820152606401610246565b6000805460ff1916600117815560038054919055821561060d576005805460ff191660021790556001546040516000916001600160a01b03169083908381818185875af1925050503d806000811461059f576040519150601f19603f3d011682016040523d82523d6000602084013e6105a4565b606091505b50509050806105c55760405162461bcd60e51b815260040161024690610a5b565b6001546040518381526001600160a01b03909116907ff396531fad1d4dc2cd92386cdea800c92a507f8fe1bdb80313eb32a57481b1dc9060200160405180910390a2506106db565b60058054600460ff19909116179055600080546040516101009091046001600160a01b03169083908381818185875af1925050503d806000811461066d576040519150601f19603f3d011682016040523d82523d6000602084013e610672565b606091505b50509050806106935760405162461bcd60e51b815260040161024690610a5b565b6000546040518381526101009091046001600160a01b0316907ff396531fad1d4dc2cd92386cdea800c92a507f8fe1bdb80313eb32a57481b1dc9060200160405180910390a2505b50506000805460ff1916905550565b6001546001600160a01b031633146107445760405162461bcd60e51b815260206004820152601d60248201527f4f6e6c7920667265656c616e6365722063616e2063616c6c20746869730000006044820152606401610246565b60018060055460ff16600481111561075e5761075e610938565b1461077b5760405162461bcd60e51b815260040161024690610a24565b60405133907ff04a1f236f845c044c77f6e91793ed8787cafff53f0d8604a32abf85dece407390600090a250565b60005461010090046001600160a01b031633146107d85760405162461bcd60e51b8152600401610246906109ed565b60008060055460ff1660048111156107f2576107f2610938565b1461080f5760405162461bcd60e51b815260040161024690610a24565b6000341161085f5760405162461bcd60e51b815260206004820152601e60248201527f4465706f736974206d7573742062652067726561746572207468616e203000006044820152606401610246565b3460038190556005805460ff1916600117905560405190815233907f543ba50a5eec5e6178218e364b1d0f396157b3c8fa278522c2cb7fd99407d4749060200160405180910390a250565b600480546108b790610a84565b80601f01602080910402602001604051908101604052809291908181526020018280546108e390610a84565b80156109305780601f1061090557610100808354040283529160200191610930565b820191906000526020600020905b81548152906001019060200180831161091357829003601f168201915b505050505081565b634e487b7160e01b600052602160045260246000fd5b602081016005831061097057634e487b7160e01b600052602160045260246000fd5b91905290565b60006020828403121561098857600080fd5b8135801515811461099857600080fd5b9392505050565b600060208083528351808285015260005b818110156109cc578581018301518582016040015282016109b0565b506000604082860101526040601f19601f8301168501019250505092915050565b60208082526019908201527f4f6e6c7920636c69656e742063616e2063616c6c207468697300000000000000604082015260600190565b6020808252601d908201527f496e76616c696420737461746520666f72207468697320616374696f6e000000604082015260600190565b6020808252600f908201526e151c985b9cd9995c8819985a5b1959608a1b604082015260600190565b600181811c90821680610a9857607f821691505b602082108103610ab857634e487b7160e01b600052602260045260246000fd5b5091905056fea2646970667358221220f33555dff45b6f172a92412cfbaecd4ce731480061f7c4d12f29c77680c7601864736f6c63430008150033a26469706673582212201a5afaa10f35e5858360217878256ed2c0f19d56ef0a42b48f72d066bc9df21264736f6c63430008150033",
  "immutableReferences": {},
  "source": "// SPDX-License-Identifier: MIT\r\npragma solidity ^0.8.21;\r\n\r\nimport \"./Escrow.sol\";\r\n\r\n/// @title Escrow Factory Contract\r\n/// @notice Deploys and tracks individual Escrow contracts\r\ncontract EscrowFactory {\r\n\r\n    // ─── State variables ─────────────────────────────────────────\r\n    address public arbitrator;\r\n    address[] public escrowContracts;\r\n\r\n    // ─── Events ──────────────────────────────────────────────────\r\n    event EscrowCreated(\r\n        address indexed escrowAddress,\r\n        address indexed client,\r\n        address indexed freelancer,\r\n        string jobDescription\r\n    );\r\n\r\n    // ─── Constructor ────────────────────────────────────────────\r\n    constructor(address _arbitrator) {\r\n        require(_arbitrator != address(0), \"Invalid arbitrator address\");\r\n        arbitrator = _arbitrator;\r\n    }\r\n\r\n    // ─── Functions ──────────────────────────────────────────────\r\n\r\n    /// @notice Creates a new Escrow contract\r\n    /// @param _freelancer Address of the freelancer\r\n    /// @param _jobDescription Description of the job\r\n    /// @return Address of the newly deployed Escrow contract\r\n    function createEscrow(\r\n        address _freelancer,\r\n        string memory _jobDescription\r\n    ) external returns (address) {\r\n        Escrow newEscrow = new Escrow(\n            msg.sender,\n            _freelancer,\n            arbitrator,\n            _jobDescription\n        );\n\r\n        escrowContracts.push(address(newEscrow));\r\n\r\n        emit EscrowCreated(\r\n            address(newEscrow),\r\n            msg.sender,\r\n            _freelancer,\r\n            _jobDescription\r\n        );\r\n\r\n        return address(newEscrow);\r\n    }\r\n\r\n    /// @notice Returns all deployed escrow contract addresses\r\n    function getAllEscrows() external view returns (address[] memory) {\r\n        return escrowContracts;\r\n    }\r\n\r\n    /// @notice Returns total number of escrows created\r\n    function getEscrowCount() external view returns (uint256) {\r\n        return escrowContracts.length;\r\n    }\r\n}\n",
  "sourcePath": "C:\\Users\\Dell\\Documents\\freelance-escrow-dapp\\contracts\\EscrowFactory.sol",
  "compiler": {
    "name": "solc",
    "version": "0.8.21+commit.d9974bed.Emscripten.clang"
  },
  "schemaVersion": "3.4.16",
  "updatedAt": "2026-04-21T15:09:01.662Z",
  "networkType": "ethereum",
  "devdoc": {
    "kind": "dev",
    "methods": {
      "createEscrow(address,string)": {
        "params": {
          "_freelancer": "Address of the freelancer",
          "_jobDescription": "Description of the job"
        },
        "returns": {
          "_0": "Address of the newly deployed Escrow contract"
        }
      }
    },
    "title": "Escrow Factory Contract",
    "version": 1
  },
  "userdoc": {
    "kind": "user",
    "methods": {
      "createEscrow(address,string)": {
        "notice": "Creates a new Escrow contract"
      },
      "getAllEscrows()": {
        "notice": "Returns all deployed escrow contract addresses"
      },
      "getEscrowCount()": {
        "notice": "Returns total number of escrows created"
      }
    },
    "notice": "Deploys and tracks individual Escrow contracts",
    "version": 1
  }
}