{
  "contractName": "EscrowFactory",
  "abi": [
    {
      "inputs": [
        {
          "internalType": "address",
          "name": "_arbitrator",
          "type": "address"
        }
      ],
      "stateMutability": "nonpayable",
      "type": "constructor"
    },
    {
      "anonymous": false,
      "inputs": [
        {
          "indexed": true,
          "internalType": "address",
          "name": "escrowAddress",
          "type": "address"
        },
        {
          "indexed": true,
          "internalType": "address",
          "name": "client",
          "type": "address"
        },
        {
          "indexed": true,
          "internalType": "address",
          "name": "freelancer",
          "type": "address"
        },
        {
          "indexed": false,
          "internalType": "string",
          "name": "jobDescription",
          "type": "string"
        }
      ],
      "name": "EscrowCreated",
      "type": "event"
    },
    {
      "inputs": [],
      "name": "arbitrator",
      "outputs": [
        {
          "internalType": "address",
          "name": "",
          "type": "address"
        }
      ],
      "stateMutability": "view",
      "type": "function"
    },
    {
      "inputs": [
        {
          "internalType": "uint256",
          "name": "",
          "type": "uint256"
        }
      ],
      "name": "escrowContracts",
      "outputs": [
        {
          "internalType": "address",
          "name": "",
          "type": "address"
        }
      ],
      "stateMutability": "view",
      "type": "function"
    },
    {
      "inputs": [
        {
          "internalType": "address",
          "name": "_freelancer",
          "type": "address"
        },
        {
          "internalType": "string",
          "name": "_jobDescription",
          "type": "string"
        }
      ],
      "name": "createEscrow",
      "outputs": [
        {
          "internalType": "address",
          "name": "",
          "type": "address"
        }
      ],
      "stateMutability": "nonpayable",
      "type": "function"
    },
    {
      "inputs": [],
      "name": "getAllEscrows",
      "outputs": [
        {
          "internalType": "address[]",
          "name": "",
          "type": "address[]"
        }
      ],
      "stateMutability": "view",
      "type": "function"
    },
    {
      "inputs": [],
      "name": "getEscrowCount",
      "outputs": [
        {
          "internalType": "uint256",
          "name": "",
          "type": "uint256"
        }
      ],
      "stateMutability": "view",
      "type": "function"
    }
  ],
  "bytecode": "0x608060405234801561000f575f80fd5b5060405161141338038061141383398101604081905261002e916100ac565b6001600160a01b0381166100885760405162461bcd60e51b815260206004820152601a60248201527f496e76616c69642061726269747261746f722061646472657373000000000000604482015260640160405180910390fd5b5f80546001600160a01b0319166001600160a01b03929092169190911790556100d9565b5f602082840312156100bc575f80fd5b81516001600160a01b03811681146100d2575f80fd5b9392505050565b61132d806100e65f395ff3fe608060405234801561000f575f80fd5b5060043610610055575f3560e01c806316b15135146100595780633f407b4f1461006f5780636cc6cde11461009a5780639a6ac36f146100ac578063d0e2dfba146100c1575b5f80fd5b6001546040519081526020015b60405180910390f35b61008261007d36600461025c565b6100d4565b6040516001600160a01b039091168152602001610066565b5f54610082906001600160a01b031681565b6100b46101b3565b6040516100669190610325565b6100826100cf366004610371565b610213565b5f80835f8054906101000a90046001600160a01b0316846040516100f79061023b565b610103939291906103cb565b604051809103905ff08015801561011c573d5f803e3d5ffd5b506001805480820182555f919091527fb10e2d527612073b26eecdfd717e6a320cf44b4afac2b0732d9fcbe2b7fa0cf60180546001600160a01b0319166001600160a01b03838116918217909255604051929350908616913391907fec6bc7b3ad653751544ce63b518a2726eb560f11c84dc10fba7ba7943183b22d906101a49088906103ff565b60405180910390a49392505050565b6060600180548060200260200160405190810160405280929190818152602001828054801561020957602002820191905f5260205f20905b81546001600160a01b031681526001909101906020018083116101eb575b5050505050905090565b60018181548110610222575f80fd5b5f918252602090912001546001600160a01b0316905081565b610edf8061041983390190565b634e487b7160e01b5f52604160045260245ffd5b5f806040838503121561026d575f80fd5b82356001600160a01b0381168114610283575f80fd5b9150602083013567ffffffffffffffff8082111561029f575f80fd5b818501915085601f8301126102b2575f80fd5b8135818111156102c4576102c4610248565b604051601f8201601f19908116603f011681019083821181831017156102ec576102ec610248565b81604052828152886020848701011115610304575f80fd5b826020860160208301375f6020848301015280955050505050509250929050565b602080825282518282018190525f9190848201906040850190845b818110156103655783516001600160a01b031683529284019291840191600101610340565b50909695505050505050565b5f60208284031215610381575f80fd5b5035919050565b5f81518084525f5b818110156103ac57602081850181015186830182015201610390565b505f602082860101526020601f19601f83011685010191505092915050565b6001600160a01b038481168252831660208201526060604082018190525f906103f690830184610388565b95945050505050565b602081525f6104116020830184610388565b939250505056fe608060405234801562000010575f80fd5b5060405162000edf38038062000edf8339810160408190526200003391620001f1565b60017f9b779b17422d0df92223018b32b4d1fa46e071723d6817e2486d003becc55f00556001600160a01b038316620000b35760405162461bcd60e51b815260206004820152601a60248201527f496e76616c696420667265656c616e636572206164647265737300000000000060448201526064015b60405180910390fd5b6001600160a01b0382166200010b5760405162461bcd60e51b815260206004820152601a60248201527f496e76616c69642061726269747261746f7220616464726573730000000000006044820152606401620000aa565b336001600160a01b03841603620001655760405162461bcd60e51b815260206004820152601b60248201527f436c69656e742063616e6e6f7420626520667265656c616e63657200000000006044820152606401620000aa565b5f8054336001600160a01b0319918216179091556001805482166001600160a01b0386811691909117909155600280549092169084161790556004620001ac82826200036f565b50506005805460ff1916905550620004379050565b80516001600160a01b0381168114620001d8575f80fd5b919050565b634e487b7160e01b5f52604160045260245ffd5b5f805f6060848603121562000204575f80fd5b6200020f84620001c1565b9250602062000220818601620001c1565b60408601519093506001600160401b03808211156200023d575f80fd5b818701915087601f83011262000251575f80fd5b815181811115620002665762000266620001dd565b604051601f8201601f19908116603f01168101908382118183101715620002915762000291620001dd565b816040528281528a86848701011115620002a9575f80fd5b5f93505b82841015620002cc5784840186015181850187015292850192620002ad565b5f8684830101528096505050505050509250925092565b600181811c90821680620002f857607f821691505b6020821081036200031757634e487b7160e01b5f52602260045260245ffd5b50919050565b601f8211156200036a575f81815260208120601f850160051c81016020861015620003455750805b601f850160051c820191505b81811015620003665782815560010162000351565b5050505b505050565b81516001600160401b038111156200038b576200038b620001dd565b620003a3816200039c8454620002e3565b846200031d565b602080601f831160018114620003d9575f8415620003c15750858301515b5f19600386901b1c1916600185901b17855562000366565b5f85815260208120601f198616915b828110156200040957888601518255948401946001909101908401620003e8565b50858210156200042757878501515f19600388901b60f8161c191681555b5050505050600190811b01905550565b610a9a80620004455f395ff3fe6080604052600436106100a5575f3560e01c806389e1e82a1161006257806389e1e82a14610173578063a37dda2c14610192578063aa8c217c146101b1578063c7a25777146101c6578063d0e30db0146101da578063d1ecc66b146101e2575f80fd5b80630c3f6acf146100a9578063109e94cf146100d857806312065fe01461010e57806369d895751461012a5780636cc6cde1146101405780636daa2d441461015f575b5f80fd5b3480156100b4575f80fd5b506005546100c29060ff1681565b6040516100cf91906108de565b60405180910390f35b3480156100e3575f80fd5b505f546100f6906001600160a01b031681565b6040516001600160a01b0390911681526020016100cf565b348015610119575f80fd5b50475b6040519081526020016100cf565b348015610135575f80fd5b5061013e610203565b005b34801561014b575f80fd5b506002546100f6906001600160a01b031681565b34801561016a575f80fd5b5061013e61035a565b34801561017e575f80fd5b5061013e61018d366004610904565b6103f4565b34801561019d575f80fd5b506001546100f6906001600160a01b031681565b3480156101bc575f80fd5b5061011c60035481565b3480156101d1575f80fd5b5061013e61063b565b61013e6106f9565b3480156101ed575f80fd5b506101f66107f2565b6040516100cf919061092a565b5f546001600160a01b031633146102355760405162461bcd60e51b815260040161022c90610975565b60405180910390fd5b60018060055460ff16600481111561024f5761024f6108ca565b1461026c5760405162461bcd60e51b815260040161022c906109ac565b61027461087e565b6005805460ff19166002179055600380545f918290556001546040519192916001600160a01b039091169083908381818185875af1925050503d805f81146102d7576040519150601f19603f3d011682016040523d82523d5f602084013e6102dc565b606091505b50509050806102fd5760405162461bcd60e51b815260040161022c906109e3565b6001546040518381526001600160a01b03909116907f221c08a06b07a64803b3787861a3f276212fcccb51c2e6234077a9b8cb13047a9060200160405180910390a2505061035760015f80516020610a4583398151915255565b50565b5f546001600160a01b031633146103835760405162461bcd60e51b815260040161022c90610975565b60018060055460ff16600481111561039d5761039d6108ca565b146103ba5760405162461bcd60e51b815260040161022c906109ac565b6005805460ff1916600317905560405133907f0b3cd97b16a08a5c77357c276d248827ad32dfd56060f7c55d6255537ba3d962905f90a250565b6002546001600160a01b0316331461044e5760405162461bcd60e51b815260206004820152601d60248201527f4f6e6c792061726269747261746f722063616e2063616c6c2074686973000000604482015260640161022c565b60038060055460ff166004811115610468576104686108ca565b146104855760405162461bcd60e51b815260040161022c906109ac565b61048d61087e565b600380545f9091558215610560576005805460ff191660021790556001546040515f916001600160a01b03169083908381818185875af1925050503d805f81146104f2576040519150601f19603f3d011682016040523d82523d5f602084013e6104f7565b606091505b50509050806105185760405162461bcd60e51b815260040161022c906109e3565b6001546040518381526001600160a01b03909116907ff396531fad1d4dc2cd92386cdea800c92a507f8fe1bdb80313eb32a57481b1dc9060200160405180910390a250610620565b6005805460ff191660041790555f80546040516001600160a01b039091169083908381818185875af1925050503d805f81146105b7576040519150601f19603f3d011682016040523d82523d5f602084013e6105bc565b606091505b50509050806105dd5760405162461bcd60e51b815260040161022c906109e3565b5f546040518381526001600160a01b03909116907ff396531fad1d4dc2cd92386cdea800c92a507f8fe1bdb80313eb32a57481b1dc9060200160405180910390a2505b5061063760015f80516020610a4583398151915255565b5050565b6001546001600160a01b031633146106955760405162461bcd60e51b815260206004820152601d60248201527f4f6e6c7920667265656c616e6365722063616e2063616c6c2074686973000000604482015260640161022c565b60018060055460ff1660048111156106af576106af6108ca565b146106cc5760405162461bcd60e51b815260040161022c906109ac565b60405133907ff04a1f236f845c044c77f6e91793ed8787cafff53f0d8604a32abf85dece4073905f90a250565b5f546001600160a01b031633146107225760405162461bcd60e51b815260040161022c90610975565b5f8060055460ff16600481111561073b5761073b6108ca565b146107585760405162461bcd60e51b815260040161022c906109ac565b5f34116107a75760405162461bcd60e51b815260206004820152601e60248201527f4465706f736974206d7573742062652067726561746572207468616e20300000604482015260640161022c565b3460038190556005805460ff1916600117905560405190815233907f543ba50a5eec5e6178218e364b1d0f396157b3c8fa278522c2cb7fd99407d4749060200160405180910390a250565b600480546107ff90610a0c565b80601f016020809104026020016040519081016040528092919081815260200182805461082b90610a0c565b80156108765780601f1061084d57610100808354040283529160200191610876565b820191905f5260205f20905b81548152906001019060200180831161085957829003601f168201915b505050505081565b610886610899565b60025f80516020610a4583398151915255565b5f80516020610a45833981519152546002036108c857604051633ee5aeb560e01b815260040160405180910390fd5b565b634e487b7160e01b5f52602160045260245ffd5b60208101600583106108fe57634e487b7160e01b5f52602160045260245ffd5b91905290565b5f60208284031215610914575f80fd5b81358015158114610923575f80fd5b9392505050565b5f6020808352835180828501525f5b8181101561095557858101830151858201604001528201610939565b505f604082860101526040601f19601f8301168501019250505092915050565b60208082526019908201527f4f6e6c7920636c69656e742063616e2063616c6c207468697300000000000000604082015260600190565b6020808252601d908201527f496e76616c696420737461746520666f72207468697320616374696f6e000000604082015260600190565b6020808252600f908201526e151c985b9cd9995c8819985a5b1959608a1b604082015260600190565b600181811c90821680610a2057607f821691505b602082108103610a3e57634e487b7160e01b5f52602260045260245ffd5b5091905056fe9b779b17422d0df92223018b32b4d1fa46e071723d6817e2486d003becc55f00a264697066735822122067c4460ba84b7c9ba159df8fef660738e138c546339968906b8cd004f647438664736f6c63430008150033a2646970667358221220f633b0cf5b249c230abb41e7badc38931c8c02a618756023d3e8ac95b3d1759c64736f6c63430008150033",
  "immutableReferences": {},
  "source": "// SPDX-License-Identifier: MIT\r\npragma solidity ^0.8.21;\r\n\r\nimport \"./Escrow.sol\";\r\n\r\n/// @title Escrow Factory Contract\r\n/// @notice Deploys and tracks individual Escrow contracts\r\ncontract EscrowFactory {\r\n\r\n    // ─── State variables ─────────────────────────────────────────\r\n    address public arbitrator;\r\n    address[] public escrowContracts;\r\n\r\n    // ─── Events ──────────────────────────────────────────────────\r\n    event EscrowCreated(\r\n        address indexed escrowAddress,\r\n        address indexed client,\r\n        address indexed freelancer,\r\n        string jobDescription\r\n    );\r\n\r\n    // ─── Constructor ─────────────────────────────────────────────\r\n    constructor(address _arbitrator) {\r\n        require(_arbitrator != address(0), \"Invalid arbitrator address\");\r\n        arbitrator = _arbitrator;\r\n    }\r\n\r\n    // ─── Functions ───────────────────────────────────────────────\r\n\r\n    /// @notice Creates a new Escrow contract\r\n    /// @param _freelancer Address of the freelancer\r\n    /// @param _jobDescription Description of the job\r\n    /// @return Address of the newly deployed Escrow contract\r\n    function createEscrow(\r\n        address _freelancer,\r\n        string memory _jobDescription\r\n    ) external returns (address) {\r\n        Escrow newEscrow = new Escrow(\r\n            _freelancer,\r\n            arbitrator,\r\n            _jobDescription\r\n        );\r\n\r\n        escrowContracts.push(address(newEscrow));\r\n\r\n        emit EscrowCreated(\r\n            address(newEscrow),\r\n            msg.sender,\r\n            _freelancer,\r\n            _jobDescription\r\n        );\r\n\r\n        return address(newEscrow);\r\n    }\r\n\r\n    /// @notice Returns all deployed escrow contract addresses\r\n    function getAllEscrows() external view returns (address[] memory) {\r\n        return escrowContracts;\r\n    }\r\n\r\n    /// @notice Returns total number of escrows created\r\n    function getEscrowCount() external view returns (uint256) {\r\n        return escrowContracts.length;\r\n    }\r\n}",
  "sourcePath": "C:\\Users\\Dell\\Documents\\freelance-escrow-dapp\\contracts\\EscrowFactory.sol",
  "compiler": {
    "name": "solc",
    "version": "0.8.21+commit.d9974bed.Emscripten.clang"
  },
  "schemaVersion": "3.4.16",
  "updatedAt": "2026-03-15T17:12:04.151Z",
  "devdoc": {
    "kind": "dev",
    "methods": {
      "createEscrow(address,string)": {
        "params": {
          "_freelancer": "Address of the freelancer",
          "_jobDescription": "Description of the job"
        },
        "returns": {
          "_0": "Address of the newly deployed Escrow contract"
        }
      }
    },
    "title": "Escrow Factory Contract",
    "version": 1
  },
  "userdoc": {
    "kind": "user",
    "methods": {
      "createEscrow(address,string)": {
        "notice": "Creates a new Escrow contract"
      },
      "getAllEscrows()": {
        "notice": "Returns all deployed escrow contract addresses"
      },
      "getEscrowCount()": {
        "notice": "Returns total number of escrows created"
      }
    },
    "notice": "Deploys and tracks individual Escrow contracts",
    "version": 1
  }
}