{
  "contractName": "Escrow",
  "abi": [
    {
      "inputs": [
        {
          "internalType": "address",
          "name": "_freelancer",
          "type": "address"
        },
        {
          "internalType": "address",
          "name": "_arbitrator",
          "type": "address"
        },
        {
          "internalType": "string",
          "name": "_jobDescription",
          "type": "string"
        }
      ],
      "stateMutability": "nonpayable",
      "type": "constructor"
    },
    {
      "inputs": [],
      "name": "ReentrancyGuardReentrantCall",
      "type": "error"
    },
    {
      "anonymous": false,
      "inputs": [
        {
          "indexed": true,
          "internalType": "address",
          "name": "raisedBy",
          "type": "address"
        }
      ],
      "name": "DisputeRaised",
      "type": "event"
    },
    {
      "anonymous": false,
      "inputs": [
        {
          "indexed": true,
          "internalType": "address",
          "name": "winner",
          "type": "address"
        },
        {
          "indexed": false,
          "internalType": "uint256",
          "name": "amount",
          "type": "uint256"
        }
      ],
      "name": "DisputeResolved",
      "type": "event"
    },
    {
      "anonymous": false,
      "inputs": [
        {
          "indexed": true,
          "internalType": "address",
          "name": "client",
          "type": "address"
        },
        {
          "indexed": false,
          "internalType": "uint256",
          "name": "amount",
          "type": "uint256"
        }
      ],
      "name": "FundsDeposited",
      "type": "event"
    },
    {
      "anonymous": false,
      "inputs": [
        {
          "indexed": true,
          "internalType": "address",
          "name": "freelancer",
          "type": "address"
        },
        {
          "indexed": false,
          "internalType": "uint256",
          "name": "amount",
          "type": "uint256"
        }
      ],
      "name": "FundsReleased",
      "type": "event"
    },
    {
      "anonymous": false,
      "inputs": [
        {
          "indexed": true,
          "internalType": "address",
          "name": "client",
          "type": "address"
        },
        {
          "indexed": false,
          "internalType": "uint256",
          "name": "amount",
          "type": "uint256"
        }
      ],
      "name": "RefundIssued",
      "type": "event"
    },
    {
      "anonymous": false,
      "inputs": [
        {
          "indexed": true,
          "internalType": "address",
          "name": "freelancer",
          "type": "address"
        }
      ],
      "name": "WorkSubmitted",
      "type": "event"
    },
    {
      "inputs": [],
      "name": "amount",
      "outputs": [
        {
          "internalType": "uint256",
          "name": "",
          "type": "uint256"
        }
      ],
      "stateMutability": "view",
      "type": "function"
    },
    {
      "inputs": [],
      "name": "arbitrator",
      "outputs": [
        {
          "internalType": "address",
          "name": "",
          "type": "address"
        }
      ],
      "stateMutability": "view",
      "type": "function"
    },
    {
      "inputs": [],
      "name": "client",
      "outputs": [
        {
          "internalType": "address",
          "name": "",
          "type": "address"
        }
      ],
      "stateMutability": "view",
      "type": "function"
    },
    {
      "inputs": [],
      "name": "currentState",
      "outputs": [
        {
          "internalType": "enum Escrow.State",
          "name": "",
          "type": "uint8"
        }
      ],
      "stateMutability": "view",
      "type": "function"
    },
    {
      "inputs": [],
      "name": "freelancer",
      "outputs": [
        {
          "internalType": "address",
          "name": "",
          "type": "address"
        }
      ],
      "stateMutability": "view",
      "type": "function"
    },
    {
      "inputs": [],
      "name": "jobDescription",
      "outputs": [
        {
          "internalType": "string",
          "name": "",
          "type": "string"
        }
      ],
      "stateMutability": "view",
      "type": "function"
    },
    {
      "inputs": [],
      "name": "deposit",
      "outputs": [],
      "stateMutability": "payable",
      "type": "function"
    },
    {
      "inputs": [],
      "name": "submitWork",
      "outputs": [],
      "stateMutability": "nonpayable",
      "type": "function"
    },
    {
      "inputs": [],
      "name": "releaseFunds",
      "outputs": [],
      "stateMutability": "nonpayable",
      "type": "function"
    },
    {
      "inputs": [],
      "name": "raiseDispute",
      "outputs": [],
      "stateMutability": "nonpayable",
      "type": "function"
    },
    {
      "inputs": [
        {
          "internalType": "bool",
          "name": "_releaseToFreelancer",
          "type": "bool"
        }
      ],
      "name": "resolveDispute",
      "outputs": [],
      "stateMutability": "nonpayable",
      "type": "function"
    },
    {
      "inputs": [],
      "name": "getBalance",
      "outputs": [
        {
          "internalType": "uint256",
          "name": "",
          "type": "uint256"
        }
      ],
      "stateMutability": "view",
      "type": "function"
    }
  ],
  "bytecode": "0x608060405234801562000010575f80fd5b5060405162000edf38038062000edf8339810160408190526200003391620001f1565b60017f9b779b17422d0df92223018b32b4d1fa46e071723d6817e2486d003becc55f00556001600160a01b038316620000b35760405162461bcd60e51b815260206004820152601a60248201527f496e76616c696420667265656c616e636572206164647265737300000000000060448201526064015b60405180910390fd5b6001600160a01b0382166200010b5760405162461bcd60e51b815260206004820152601a60248201527f496e76616c69642061726269747261746f7220616464726573730000000000006044820152606401620000aa565b336001600160a01b03841603620001655760405162461bcd60e51b815260206004820152601b60248201527f436c69656e742063616e6e6f7420626520667265656c616e63657200000000006044820152606401620000aa565b5f8054336001600160a01b0319918216179091556001805482166001600160a01b0386811691909117909155600280549092169084161790556004620001ac82826200036f565b50506005805460ff1916905550620004379050565b80516001600160a01b0381168114620001d8575f80fd5b919050565b634e487b7160e01b5f52604160045260245ffd5b5f805f6060848603121562000204575f80fd5b6200020f84620001c1565b9250602062000220818601620001c1565b60408601519093506001600160401b03808211156200023d575f80fd5b818701915087601f83011262000251575f80fd5b815181811115620002665762000266620001dd565b604051601f8201601f19908116603f01168101908382118183101715620002915762000291620001dd565b816040528281528a86848701011115620002a9575f80fd5b5f93505b82841015620002cc5784840186015181850187015292850192620002ad565b5f8684830101528096505050505050509250925092565b600181811c90821680620002f857607f821691505b6020821081036200031757634e487b7160e01b5f52602260045260245ffd5b50919050565b601f8211156200036a575f81815260208120601f850160051c81016020861015620003455750805b601f850160051c820191505b81811015620003665782815560010162000351565b5050505b505050565b81516001600160401b038111156200038b576200038b620001dd565b620003a3816200039c8454620002e3565b846200031d565b602080601f831160018114620003d9575f8415620003c15750858301515b5f19600386901b1c1916600185901b17855562000366565b5f85815260208120601f198616915b828110156200040957888601518255948401946001909101908401620003e8565b50858210156200042757878501515f19600388901b60f8161c191681555b5050505050600190811b01905550565b610a9a80620004455f395ff3fe6080604052600436106100a5575f3560e01c806389e1e82a1161006257806389e1e82a14610173578063a37dda2c14610192578063aa8c217c146101b1578063c7a25777146101c6578063d0e30db0146101da578063d1ecc66b146101e2575f80fd5b80630c3f6acf146100a9578063109e94cf146100d857806312065fe01461010e57806369d895751461012a5780636cc6cde1146101405780636daa2d441461015f575b5f80fd5b3480156100b4575f80fd5b506005546100c29060ff1681565b6040516100cf91906108de565b60405180910390f35b3480156100e3575f80fd5b505f546100f6906001600160a01b031681565b6040516001600160a01b0390911681526020016100cf565b348015610119575f80fd5b50475b6040519081526020016100cf565b348015610135575f80fd5b5061013e610203565b005b34801561014b575f80fd5b506002546100f6906001600160a01b031681565b34801561016a575f80fd5b5061013e61035a565b34801561017e575f80fd5b5061013e61018d366004610904565b6103f4565b34801561019d575f80fd5b506001546100f6906001600160a01b031681565b3480156101bc575f80fd5b5061011c60035481565b3480156101d1575f80fd5b5061013e61063b565b61013e6106f9565b3480156101ed575f80fd5b506101f66107f2565b6040516100cf919061092a565b5f546001600160a01b031633146102355760405162461bcd60e51b815260040161022c90610975565b60405180910390fd5b60018060055460ff16600481111561024f5761024f6108ca565b1461026c5760405162461bcd60e51b815260040161022c906109ac565b61027461087e565b6005805460ff19166002179055600380545f918290556001546040519192916001600160a01b039091169083908381818185875af1925050503d805f81146102d7576040519150601f19603f3d011682016040523d82523d5f602084013e6102dc565b606091505b50509050806102fd5760405162461bcd60e51b815260040161022c906109e3565b6001546040518381526001600160a01b03909116907f221c08a06b07a64803b3787861a3f276212fcccb51c2e6234077a9b8cb13047a9060200160405180910390a2505061035760015f80516020610a4583398151915255565b50565b5f546001600160a01b031633146103835760405162461bcd60e51b815260040161022c90610975565b60018060055460ff16600481111561039d5761039d6108ca565b146103ba5760405162461bcd60e51b815260040161022c906109ac565b6005805460ff1916600317905560405133907f0b3cd97b16a08a5c77357c276d248827ad32dfd56060f7c55d6255537ba3d962905f90a250565b6002546001600160a01b0316331461044e5760405162461bcd60e51b815260206004820152601d60248201527f4f6e6c792061726269747261746f722063616e2063616c6c2074686973000000604482015260640161022c565b60038060055460ff166004811115610468576104686108ca565b146104855760405162461bcd60e51b815260040161022c906109ac565b61048d61087e565b600380545f9091558215610560576005805460ff191660021790556001546040515f916001600160a01b03169083908381818185875af1925050503d805f81146104f2576040519150601f19603f3d011682016040523d82523d5f602084013e6104f7565b606091505b50509050806105185760405162461bcd60e51b815260040161022c906109e3565b6001546040518381526001600160a01b03909116907ff396531fad1d4dc2cd92386cdea800c92a507f8fe1bdb80313eb32a57481b1dc9060200160405180910390a250610620565b6005805460ff191660041790555f80546040516001600160a01b039091169083908381818185875af1925050503d805f81146105b7576040519150601f19603f3d011682016040523d82523d5f602084013e6105bc565b606091505b50509050806105dd5760405162461bcd60e51b815260040161022c906109e3565b5f546040518381526001600160a01b03909116907ff396531fad1d4dc2cd92386cdea800c92a507f8fe1bdb80313eb32a57481b1dc9060200160405180910390a2505b5061063760015f80516020610a4583398151915255565b5050565b6001546001600160a01b031633146106955760405162461bcd60e51b815260206004820152601d60248201527f4f6e6c7920667265656c616e6365722063616e2063616c6c2074686973000000604482015260640161022c565b60018060055460ff1660048111156106af576106af6108ca565b146106cc5760405162461bcd60e51b815260040161022c906109ac565b60405133907ff04a1f236f845c044c77f6e91793ed8787cafff53f0d8604a32abf85dece4073905f90a250565b5f546001600160a01b031633146107225760405162461bcd60e51b815260040161022c90610975565b5f8060055460ff16600481111561073b5761073b6108ca565b146107585760405162461bcd60e51b815260040161022c906109ac565b5f34116107a75760405162461bcd60e51b815260206004820152601e60248201527f4465706f736974206d7573742062652067726561746572207468616e20300000604482015260640161022c565b3460038190556005805460ff1916600117905560405190815233907f543ba50a5eec5e6178218e364b1d0f396157b3c8fa278522c2cb7fd99407d4749060200160405180910390a250565b600480546107ff90610a0c565b80601f016020809104026020016040519081016040528092919081815260200182805461082b90610a0c565b80156108765780601f1061084d57610100808354040283529160200191610876565b820191905f5260205f20905b81548152906001019060200180831161085957829003601f168201915b505050505081565b610886610899565b60025f80516020610a4583398151915255565b5f80516020610a45833981519152546002036108c857604051633ee5aeb560e01b815260040160405180910390fd5b565b634e487b7160e01b5f52602160045260245ffd5b60208101600583106108fe57634e487b7160e01b5f52602160045260245ffd5b91905290565b5f60208284031215610914575f80fd5b81358015158114610923575f80fd5b9392505050565b5f6020808352835180828501525f5b8181101561095557858101830151858201604001528201610939565b505f604082860101526040601f19601f8301168501019250505092915050565b60208082526019908201527f4f6e6c7920636c69656e742063616e2063616c6c207468697300000000000000604082015260600190565b6020808252601d908201527f496e76616c696420737461746520666f72207468697320616374696f6e000000604082015260600190565b6020808252600f908201526e151c985b9cd9995c8819985a5b1959608a1b604082015260600190565b600181811c90821680610a2057607f821691505b602082108103610a3e57634e487b7160e01b5f52602260045260245ffd5b5091905056fe9b779b17422d0df92223018b32b4d1fa46e071723d6817e2486d003becc55f00a264697066735822122067c4460ba84b7c9ba159df8fef660738e138c546339968906b8cd004f647438664736f6c63430008150033",
  "immutableReferences": {},
  "source": "// SPDX-License-Identifier: MIT\r\npragma solidity ^0.8.21;\r\n\r\nimport \"@openzeppelin/contracts/utils/ReentrancyGuard.sol\";\r\n\r\n/// @title Freelance Escrow Contract\r\n/// @notice Holds funds between client and freelancer with dispute resolution\r\ncontract Escrow is ReentrancyGuard {\r\n\r\n    // ─── State machine ───────────────────────────────────────────\r\n    enum State {\r\n        AWAITING_PAYMENT,\r\n        AWAITING_DELIVERY,\r\n        COMPLETE,\r\n        DISPUTED,\r\n        REFUNDED\r\n    }\r\n\r\n    // ─── State variables ─────────────────────────────────────────\r\n    address public client;\r\n    address public freelancer;\r\n    address public arbitrator;\r\n    uint256 public amount;\r\n    string  public jobDescription;\r\n    State   public currentState;\r\n\r\n    // ─── Events ──────────────────────────────────────────────────\r\n    event FundsDeposited(address indexed client, uint256 amount);\r\n    event WorkSubmitted(address indexed freelancer);\r\n    event FundsReleased(address indexed freelancer, uint256 amount);\r\n    event RefundIssued(address indexed client, uint256 amount);\r\n    event DisputeRaised(address indexed raisedBy);\r\n    event DisputeResolved(address indexed winner, uint256 amount);\r\n\r\n    // ─── Modifiers ───────────────────────────────────────────────\r\n    modifier onlyClient() {\r\n        require(msg.sender == client, \"Only client can call this\");\r\n        _;\r\n    }\r\n\r\n    modifier onlyFreelancer() {\r\n        require(msg.sender == freelancer, \"Only freelancer can call this\");\r\n        _;\r\n    }\r\n\r\n    modifier onlyArbitrator() {\r\n        require(msg.sender == arbitrator, \"Only arbitrator can call this\");\r\n        _;\r\n    }\r\n\r\n    modifier inState(State _state) {\r\n        require(currentState == _state, \"Invalid state for this action\");\r\n        _;\r\n    }\r\n\r\n    // ─── Constructor ─────────────────────────────────────────────\r\n    constructor(\r\n        address _freelancer,\r\n        address _arbitrator,\r\n        string memory _jobDescription\r\n    ) {\r\n        require(_freelancer != address(0), \"Invalid freelancer address\");\r\n        require(_arbitrator != address(0), \"Invalid arbitrator address\");\r\n        require(_freelancer != msg.sender, \"Client cannot be freelancer\");\r\n\r\n        client         = msg.sender;\r\n        freelancer     = _freelancer;\r\n        arbitrator     = _arbitrator;\r\n        jobDescription = _jobDescription;\r\n        currentState   = State.AWAITING_PAYMENT;\r\n    }\r\n\r\n    // ─── Functions ───────────────────────────────────────────────\r\n\r\n    /// @notice Client deposits ETH to fund the escrow\r\n    function deposit()\r\n        external\r\n        payable\r\n        onlyClient\r\n        inState(State.AWAITING_PAYMENT)\r\n    {\r\n        require(msg.value > 0, \"Deposit must be greater than 0\");\r\n        amount = msg.value;\r\n        currentState = State.AWAITING_DELIVERY;\r\n        emit FundsDeposited(msg.sender, msg.value);\r\n    }\r\n\r\n    /// @notice Freelancer marks work as submitted\r\n    function submitWork()\r\n        external\r\n        onlyFreelancer\r\n        inState(State.AWAITING_DELIVERY)\r\n    {\r\n        emit WorkSubmitted(msg.sender);\r\n    }\r\n\r\n    /// @notice Client approves work and releases funds to freelancer\r\n    function releaseFunds()\r\n        external\r\n        onlyClient\r\n        inState(State.AWAITING_DELIVERY)\r\n        nonReentrant\r\n    {\r\n        currentState = State.COMPLETE;\r\n        uint256 payout = amount;\r\n        amount = 0;\r\n        (bool success, ) = freelancer.call{value: payout}(\"\");\r\n        require(success, \"Transfer failed\");\r\n        emit FundsReleased(freelancer, payout);\r\n    }\r\n\r\n    /// @notice Client raises a dispute\r\n    function raiseDispute()\r\n        external\r\n        onlyClient\r\n        inState(State.AWAITING_DELIVERY)\r\n    {\r\n        currentState = State.DISPUTED;\r\n        emit DisputeRaised(msg.sender);\r\n    }\r\n\r\n    /// @notice Arbitrator resolves dispute — true = pay freelancer, false = refund client\r\n    function resolveDispute(bool _releaseToFreelancer)\r\n        external\r\n        onlyArbitrator\r\n        inState(State.DISPUTED)\r\n        nonReentrant\r\n    {\r\n        uint256 payout = amount;\r\n        amount = 0;\r\n\r\n        if (_releaseToFreelancer) {\r\n            currentState = State.COMPLETE;\r\n            (bool success, ) = freelancer.call{value: payout}(\"\");\r\n            require(success, \"Transfer failed\");\r\n            emit DisputeResolved(freelancer, payout);\r\n        } else {\r\n            currentState = State.REFUNDED;\r\n            (bool success, ) = client.call{value: payout}(\"\");\r\n            require(success, \"Transfer failed\");\r\n            emit DisputeResolved(client, payout);\r\n        }\r\n    }\r\n\r\n    /// @notice Returns the contract's current ETH balance\r\n    function getBalance() external view returns (uint256) {\r\n        return address(this).balance;\r\n    }\r\n}",
  "sourcePath": "C:\\Users\\Dell\\Documents\\freelance-escrow-dapp\\contracts\\Escrow.sol",
  "compiler": {
    "name": "solc",
    "version": "0.8.21+commit.d9974bed.Emscripten.clang"
  },
  "schemaVersion": "3.4.16",
  "updatedAt": "2026-03-15T17:12:04.141Z",
  "devdoc": {
    "errors": {
      "ReentrancyGuardReentrantCall()": [
        {
          "details": "Unauthorized reentrant call."
        }
      ]
    },
    "kind": "dev",
    "methods": {},
    "title": "Freelance Escrow Contract",
    "version": 1
  },
  "userdoc": {
    "kind": "user",
    "methods": {
      "deposit()": {
        "notice": "Client deposits ETH to fund the escrow"
      },
      "getBalance()": {
        "notice": "Returns the contract's current ETH balance"
      },
      "raiseDispute()": {
        "notice": "Client raises a dispute"
      },
      "releaseFunds()": {
        "notice": "Client approves work and releases funds to freelancer"
      },
      "resolveDispute(bool)": {
        "notice": "Arbitrator resolves dispute — true = pay freelancer, false = refund client"
      },
      "submitWork()": {
        "notice": "Freelancer marks work as submitted"
      }
    },
    "notice": "Holds funds between client and freelancer with dispute resolution",
    "version": 1
  }
}